:100000000C9462000C94080B0C94E10A0C948A0086
:100010000C948A000C948A000C94A60C0C948A0010
:100020000C948A000C948A000C948A000C948A0028
:100030000C948A000C948A000C948A000C948A0018
:100040000C94970A0C948A000C94550B0C942F0B6B
:100050000C948A000C948A000C94BD0C0C948A00B9
:100060000C94870B0C948A000000000024002700E9
:100070002A0000000000250028002B0000000000DE
:1000800023002600290004040404040404040202DA
:100090000202020203030303030301020408102007
:1000A0004080010204081020010204081020000012
:1000B0000008000201000003040700000000000027
:1000C0000000FE0C11241FBECFEFD8E0DEBFCDBF75
:1000D00012E0A0E0B1E0E8E1F5E202C005900D9287
:1000E000AE3EB107D9F724E0AEEEB2E001C01D92FA
:1000F000A13DB207E1F710E0C2E6D0E004C02197CD
:10010000FE010E94E110C136D107C9F70E94810D9E
:100110000C948A120C940000FC0163E18FEF9FEFB6
:100120006150C9F02191322F3927232F22952F704A
:100130002327422F50E0382FCA01982F8827929505
:10014000907F82279327A5E0440F551FAA95E1F7DA
:1001500084279527E5CF0895833081F028F48130F6
:1001600099F08230A9F008958730A9F08830C9F05D
:100170008430B1F4809180008F7D03C08091800035
:100180008F7780938000089584B58F7784BD08951C
:1001900084B58F7DFBCF8091B0008F778093B000C6
:1001A00008958091B0008F7DF9CFCF93DF93282FF2
:1001B00030E0F901E255FF4F8491F901E656FF4F17
:1001C000D491F901EA57FF4FC491CC23A1F08111DA
:1001D0000E94AC00EC2FF0E0EE0FFF1FE458FF4F41
:1001E000A591B491EC91ED2381E090E009F480E0D9
:1001F000DF91CF91089580E090E0FACFFC018485F3
:100200000E94D5000895FC0185850E94D5000895BF
:100210001F93CF93DF93282F30E0F901E255FF4F72
:100220008491F901E656FF4FD491F901EA57FF4F47
:10023000C491CC23A9F0162F81110E94AC00EC2FA1
:10024000F0E0EE0FFF1FEE58FF4FA591B4918FB76E
:10025000F894EC91111108C0D095DE23DC938FBF88
:10026000DF91CF911F910895DE2BF8CFCF93DF93CD
:1002700090E0FC01E656FF4F24918A579F4FFC0106
:1002800084918823C9F090E0880F991FFC01E859F8
:10029000FF4FA591B491FC01EE58FF4FC591D49149
:1002A00061110DC09FB7F8948C91209582238C9397
:1002B0008881282328839FBFDF91CF9108956230E2
:1002C00051F49FB7F8943C91822F809583238C93AF
:1002D000E8812E2BEFCF8FB7F894EC912E2B2C9337
:1002E0008FBFEACFCF93DF93FC01C485DFB7F894CB
:1002F00060E08C2F0E94080161E08C2F0E94360183
:10030000DFBFDF91CF910895FC01668584850C9451
:100310003601CF93DF93FC01C585DFB7F89460E029
:100320008C2F0E94080161E08C2F0E943601DFBFF4
:10033000DF91CF910895FC01668585850C94360187
:100340008330910528F0880F991F04970197F1F7E2
:1003500008953FB7F8948091EB039091EC03A0913E
:10036000ED03B091EE0326B5A89B05C02F3F19F011
:100370000196A11DB11D3FBFBA2FA92F982F882725
:10038000BC01CD01620F711D811D911D43E0660FFF
:10039000771F881F991F4A95D1F708958F929F92D2
:1003A000AF92BF92CF92DF92EF92FF924B015C012E
:1003B0000E94A9016B017C010E94A9016C197D09B1
:1003C0008E099F09683E734081059105A8F321E0DD
:1003D000821A9108A108B10888EEC80E83E0D81EE1
:1003E000E11CF11C81149104A104B10429F7FF90D0
:1003F000EF90DF90CF90BF90AF909F908F90089537
:100400008091D004811103C081E08093D0040895CD
:10041000E091A703F091A803309729F01092A2036E
:100420001092A10309940895CF93DF93AC01E0915A
:10043000A503F091A6033097F1F09091A403809169
:10044000A3039817C0F090E0292F30E02617370754
:1004500054F4D901A950BD4F240F351FE90128815B
:100460002C939F5FF1CF1092A4036093A303CB0161
:10047000DF91CF910994DF91CF9108950895AF92C4
:10048000BF92CF92DF92EF92FF920F931F93CF9381
:10049000DF936C017B018B01040F151FEB015E01E3
:1004A000AE18BF08C017D10759F06991D601ED9178
:1004B000FC910190F081E02DC6010995892B79F717
:1004C000C501DF91CF911F910F91FF90EF90DF90C9
:1004D000CF90BF90AF900895FC01538D448D252F90
:1004E00030E0842F90E0821B930B541710F0CF96CE
:1004F000089501970895FC01918D828D981761F000
:10050000A28DAE0FBF2FB11D5D968C91928D9F5F16
:100510009F73928F90E008958FEF9FEF0895FC01F5
:10052000918D828D981731F0828DE80FF11D858DA8
:1005300090E008958FEF9FEF0895FC01918D228D3B
:10054000892F90E0805C9F4F821B91098F739927C0
:1005500008958FEE93E00E949D0221E0892B09F41B
:1005600020E0822F089580E090E0892B29F00E94FE
:10057000A90281110C9400000895FC01A48DA80F1C
:10058000B92FB11DA35ABF4F2C91848D90E00196D5
:100590008F739927848FA689B7892C93A089B189F5
:1005A0008C91837080648C93938D848D981306C096
:1005B0000288F389E02D80818F7D80830895EF92FA
:1005C000FF920F931F93CF93DF93EC0181E0888F0D
:1005D0009B8D8C8D98131AC0E889F989808185FFDD
:1005E00015C09FB7F894EE89FF896083E889F9897F
:1005F00080818370806480839FBF81E090E0DF9181
:10060000CF911F910F91FF90EF900895F62E0B8DD3
:1006100010E00F5F1F4F0F731127E02E8C8D8E118E
:100620000CC00FB607FCFACFE889F989808185FFF5
:10063000F5CFCE010E94BD02F1CFEB8DEC0FFD2F67
:10064000F11DE35AFF4FF0829FB7F8940B8FEA89B0
:10065000FB8980818062CFCFCF93DF93EC01888DBF
:100660008823B9F0AA89BB89E889F9898C9185FD2D
:1006700003C0808186FD0DC00FB607FCF7CF8C91BB
:1006800085FFF2CF808185FFEDCFCE010E94BD02B4
:10069000E9CFDF91CF91089520913D03260F3327B5
:1006A000331F21323105ECF420916103FC0190E00D
:1006B00080E0243069F082E00895A0913D0321910B
:1006C000AC01435E5C4FA40FB52FB11D2C93019676
:1006D000861798F380913D03680F60933D0380E097
:1006E000089581E00895ECEBF0E080818A7B8083BF
:1006F00060E082E10E94080160E083E10C9408015F
:100700001092610381E0809363031092620361E0C1
:1007100082E10E94080161E083E10E940801E9EBA7
:10072000F0E080818E7F808380818D7F808380E276
:100730008093B80085E48093BC0008950895E0910B
:10074000A4038091A303E81730F4F0E0E950FD4FD3
:10075000808190E008958FEF9FEF08959091A4031A
:100760008091A3032FEF3FEF981748F4E92FF0E0B3
:10077000E950FD4F208130E09F5F9093A403C901B1
:1007800008958091A3039091A403891B990B089568
:10079000CF93DF93CB01EA01642F0E944C03CE017B
:1007A000DF91CF910895CF93DF931F92CDB7DEB73E
:1007B000698361E0CE0101960E944C0381E090E0E4
:1007C0000F90DF91CF910895E091F302F0E0EB52AA
:1007D000FC4F60818CE894E00C94D30341155105E3
:1007E00029F4EAE7F0E080818F7780836A30710531
:1007F000B9F0CB01880F991F880F991F807267701D
:100800006860682B88E10FB6F894A8958093600023
:100810000FBE60936000E0E6F0E08081806480833A
:10082000232BD9F483B7817F846083BFF89483B787
:10083000816083BF85B7806685BF8F7D85BF7894D3
:10084000889583B78E7F83BF7894452B29F4EAE798
:10085000F0E0808180688083089583B7817F846021
:1008600083BFF89483B7816083BF7894889583B7FA
:100870008E7F83BF7894E9CFDC015596EC91559734
:1008800056968C915697E81748F452968D919C9104
:10089000E80FF92FF11D808190E008958FEF9FEF11
:1008A0000895DC015596EC91559756968C91569784
:1008B000E81770F452968D919C91539721E02E0F7A
:1008C00055962C93E80FF92FF11D808190E0089543
:1008D0008FEF9FEF0895CF92DF92EF92FF920F93E9
:1008E0001F93CF93DF936C01EB017B01E40EF51EA8
:1008F00010E000E0CE15DF0561F06991D601ED91C1
:10090000FC910190F081E02DC6010995080F191F97
:10091000F1CFC801DF91CF911F910F91FF90EF9020
:10092000DF90CF900895DC015B96EC915B975A962F
:100930008C915A97E81748F081E090E013969C93C9
:100940008E93129790E080E0089558968D919C9137
:10095000599721E02E0F5B962C93E80FF92FF11D8C
:10096000608381E090E00895FC0186899589891B68
:10097000990B089508950F931F93CF93DF93EC0184
:1009800088859985892BD9F40E94A9010C811D8144
:100990002E813F81DC01CB01801B910BA20BB30B9D
:1009A00080959095A095B0958827B7FD8395992758
:1009B000AA27BB27DF91CF911F910F9108952FB7E1
:1009C000F8948091E7039091E803A091E903B09136
:1009D000EA032FBF4C815D816E817F81841B950B63
:1009E000A60BB70BDDCFFC01408351836283738379
:1009F00081E090E0918780878FB7F8944091E7037A
:100A00005091E8036091E9037091EA038FBF808100
:100A10009181A281B381840F951FA61FB71F848384
:100A20009583A683B7830895FF920F931F93CF9367
:100A3000DF93CDB7DEB72A970FB6F894DEBF0FBEAF
:100A4000CDBF8C01F62EDC0150964D915C9170E08B
:100A500060E021E030E0CE0101960E94F304D8016D
:100A60009096ED91FC91C8010995F801878590E079
:100A70000E94A001D8015C96ED91FC91C8010995F6
:100A8000F801878590E00E94A001FF20B1F0BE012F
:100A90006F5F7F4FC8010E947605811114C082E00C
:100AA00090E02A960FB6F894DEBF0FBECDBFDF915F
:100AB000CF911F910F91FF900895D8019296ED91DB
:100AC000FC91C8010995F801878590E00E94A0017A
:100AD000D8015E96ED91FC91C8010995F8018785D2
:100AE00090E00E94A00190E080E0DBCF0F931F9385
:100AF000CF93DF93EC018B01EAA1FBA10995EEA155
:100B0000FFA1CE01099581110FC0C8010E94BB044D
:100B10008823A9F360E0CE010E94140580E0DF91F4
:100B2000CF911F910F91089581E0F9CFEF92FF923D
:100B30000F931F93CF93DF93CDB7DEB72A970FB6EE
:100B4000F894DEBF0FBECDBF8C01E62EDC015096BF
:100B50004D915C9170E060E021E030E0CE010196C3
:100B60000E94F30498E0F92ED8019096ED91FC9143
:100B7000C8010995D801E7FE23C05E96ED91FC916E
:100B8000C8010995F801878590E00E94A001BE0187
:100B90006F5F7F4FC8010E947605811115C082E00A
:100BA000E82EF12CC7012A960FB6F894DEBF0FBECF
:100BB000CDBFDF91CF911F910F91FF90EF900895DE
:100BC0005C96ED91FC91DCCFD8011F968C9190E062
:100BD0000E94A001EE0CCE0101960E94BB04882366
:100BE00029F061E0C8010E941405D9CFFA94F110F0
:100BF000BBCFD8019096ED91FC91C8010995D80121
:100C00005E96ED91FC91C8010995F801878590E009
:100C10000E94A001BE016F5F7F4FC8010E94760550
:100C2000882309F4BCCFD8019496ED91FC91C801BA
:100C3000099591E0811101C090E0E92EF8018785C6
:100C400090E00E94A001D8019096ED91FC91C8011E
:100C50000995A8CF1F93CF93DF93EC01162FEC8D4E
:100C6000FD8D09958F8590E00E94A001E8A1F9A172
:100C7000CE0109958F8590E00E94A001612FCE01E1
:100C8000DF91CF911F910C9496051F93CF93DF9323
:100C9000EC016F89660F0E942A0681309105D1F020
:100CA00010E0029729F484E0DF91CF911F9108951D
:100CB0008B8D181788F4E88DF98DE10FF11D608197
:100CC000CE010E9496058130910541F0029759F3BB
:100CD0001F5FEECF82E0E8CF80E0E6CF83E0E4CF95
:100CE0008F929F92AF92BF92CF92DF92EF92FF923C
:100CF0000F931F93CF93DF93CDB7DEB72A970FB62D
:100D0000F894DEBF0FBECDBF6B01A091C004B091BF
:100D1000C1049091C20457969C9357975B961C927E
:100D20005B97ED91FC9111970190F081E02D682F78
:100D3000CD0109950091C0041091C104C8010E9421
:100D4000450661E0C8010E94140561E070E080E0A2
:100D500090E00E94CE010091C0041091C104609106
:100D6000C204D80155961C92559756961C92660F50
:100D70006F5FC8010E942A06892B09F04FC0B12C71
:100D8000A12C8A2CF8018489A81608F047C0E288B3
:100D9000F388EA0CFB1CD7011C924089518970E052
:100DA00060E021E030E0CE0101960E94F30498E07B
:100DB000992EF7018081880F8083D8019096ED915C
:100DC000FC91C8010995D8015E96ED91FC91C8018E
:100DD0000995F801878590E00E94A001BE016F5F30
:100DE0007F4FC8010E9476058823C1F0D8011F9665
:100DF0008C9190E00E94A001D8019696ED91FC9113
:100E0000C801099581113EC0CE0101960E94BB0424
:100E1000882391F361E0C8010E94140561E0C801D4
:100E20000E9414058091C0049091C104DC01ED91F1
:100E3000FC910284F385E02D0995182F8091C00460
:100E40009091C104DC01ED91FC910284F385E02DC9
:100E5000099520E0822B912BF601918380832A96BD
:100E60000FB6F894DEBF0FBECDBFDF91CF911F91BB
:100E70000F91FF90EF90DF90CF90BF90AF909F9039
:100E80008F900895D8019496ED91FC91C801099531
:100E9000882321F0F7018081816080839A949110EA
:100EA00088CFD8019096ED91FC91C8010995B1E0E9
:100EB0008B1649F1D8015C96ED91FC91C80109951A
:100EC000F801878590E00E94A001BE016F5F7F4F0F
:100ED000C8010E947605882309F4A0CFD8011F9687
:100EE0008C9190E00E94A001D8019696ED91FC9122
:100EF000C801099581110CC0CE0101960E94BB0466
:100F0000882391F387CFD8015E96ED91FC91D6CFDF
:100F1000F801878590E00E94A001D8019096ED919C
:100F2000FC91C8010995F80186898F5F868BAA9488
:100F3000AB2809F473CFAA24A394B12C22CF0F932A
:100F40001F93CF93DF93162F072FC0ECD4E0A88117
:100F5000B9819A8157969C9357975B961C925B97A1
:100F6000ED91FC9111970190F081E02D682FCD015A
:100F7000099588819981DC01ED91FC910190F081C6
:100F8000E02D602F099588819981DC01ED91FC911C
:100F90000190F081E02D612F09950990D881C02D35
:100FA000CE010E94450661E0CE01DF91CF911F91F5
:100FB0000F910C94140590E080E00895CF93C82F12
:100FC00061E080E10E9436016C2F80E1CF910C94AA
:100FD00008018091F00281BD8091F10282BDE09113
:100FE000EE02F091EF02808180BD8FB38C608FBBE9
:100FF000F99A0895CF93DF9381E1E5EDF3E0AAE854
:10100000B3E001900D928A95E1F7409187035091EA
:10101000880324E1249FC001259F900D1124805056
:1010200090409093F1028093F0022093D103C9E89D
:10103000D3E0D093EF02C093EE02CE010E948C0069
:101040009B8B8A8BDF91CF910C94E907809187036A
:101050009091880301968333910550F4909388030F
:1010600080938703809189038F5F8093890308951C
:101070001092880310928703F5CFFC0101900020A5
:10108000E9F73197AF01481B590BBC018FEE93E094
:101090000C943F028F929F92AF92BF920F931F9337
:1010A000CF93DF93CDB7DEB7A1970FB6F894DEBF2D
:1010B0000FBECDBF19A2423008F44AE08E010F5D89
:1010C0001F4F842E912CB12CA12CA50194010E94BC
:1010D000BF10E62FB901CA01EA30F4F4E05DD8018F
:1010E000EE938D01232B242B252B79F790E080E0C4
:1010F000109719F0CD010E943D08A1960FB6F89403
:10110000DEBF0FBECDBFDF91CF911F910F91BF907A
:10111000AF909F908F900895E95CE1CFCF93DF93DC
:101120000E943D08EC018BE491E00E943D088C0F89
:101130009D1FDF91CF910895CF93DF93EC018EE453
:1011400091E00E948E088FEE93E00E942C0380E0D5
:101150000E94DE0760E082E00E94080161E082E018
:101160000E94360160E087E00E94080160E085E0AF
:101170000E9408010E9473038091F5029091F6028B
:101180008C179D0781F001969093F6028093F502EB
:1011900030E020E050E040E069E070E084EF92E071
:1011A0000E94EE03E9CF1092F6021092F50262E07F
:1011B00082E00E94360181E00E94DE071092A403C3
:1011C0001092A3031092A2031092A1030E94800325
:1011D00088E092E090939E0380939D0384E192E0E7
:1011E0009093A00380939F0380E18093BA0088EFDF
:1011F00099E09093A6038093A50384EE93E09093E7
:10120000A8038093A70386E591E00E948E088FEEE5
:1012100093E0DF91CF910C942C030C943D08CF9375
:10122000C82F8BE691E0C130E9F08EE591E0C13046
:10123000C8F087E791E0C230A9F08AE891E00E9407
:101240000D098FEE93E00E942C036C2F70E090E06C
:1012500080E04AE00E944A088FEE93E00E942C034F
:1012600084E591E00E940D098FEE93E0CF910C94FC
:101270002C03CF93DF93BC0190E080E04AE00E9412
:101280004A08EC018BE491E00E943D088C0F9D1F01
:10129000DF91CF910895CF93DF938DE491E00E9489
:1012A0008E088FEE93E00E942C0384E991E00E9467
:1012B0008E088FEE93E00E942C038CEE91E00E944A
:1012C0000D098FEE93E00E942C03C5EDD3E08881D9
:1012D00099810E9439098FEE93E00E942C0383EBE1
:1012E00091E00E940D098FEE93E00E942C038A8109
:1012F0009B810E9439098FEE93E00E942C0387ECBA
:1013000091E00E940D098FEE93E00E942C038C81E6
:101310009D810E9439098FEE93E00E942C038BED92
:1013200091E00E940D098FEE93E00E942C038E81C4
:101330009F810E9439098FEE93E00E942C0386EF73
:1013400091E00E940D098FEE93E00E942C038885A6
:1013500099850E9439098FEE93E00E942C038CE05E
:1013600092E00E940D098FEE93E00E942C038A8583
:101370009B850E9439098FEE93E00E942C0385E241
:1013800092E00E940D098FEE93E00E942C036C8581
:1013900070E090E080E04AE00E944A088BE491E02F
:1013A0000E943D088FEE93E00E942C0386E392E0BA
:1013B0000E940D098FEE93E00E942C038D859E857F
:1013C0000E9439098FEE93E00E942C0384E991E09A
:1013D0000E948E088FEE93E00E942C038DE491E032
:1013E0000E948E088FEE93E0DF91CF910C942C0336
:1013F000CF93DF9300D0CDB7DEB79A83898360E8BF
:101400008CE894E00E94D30389819A81019731F49A
:101410008CE894E00E94AE038093F30289819A8164
:101420000297F9F48CE894E00E94AE038093F302F3
:101430008CE894E00E94AE038093F2028091F30264
:10144000813178F4E091F3028091F202F0E0EB5206
:10145000FC4F80838091F3028C3019F081E08093FF
:10146000D4038091A3039091A403891B990B1816B0
:10147000190664F48CE894E00E94AE03BC01990F55
:10148000880B990B40E10E944A08EBCF0F900F9018
:10149000DF91CF910895CF93DF9385ED8093BC00CA
:1014A0008091190390911A03A0911B03B0911C0322
:1014B0000796A11DB11D23E0B695A7959795879531
:1014C0002A95D1F72091BC0024FD03C0109261033E
:1014D0002BC04091190350911A0360911B03709126
:1014E0001C03452B462B472B69F30097A105B1053B
:1014F00041F02AE12A95F1F700C00197A109B1094D
:10150000E1CF8091180391E090931703882361F055
:10151000C091B800D091BA000E9473030E9480036A
:10152000D093BA00C093B800DF91CF9108951F9275
:101530000F920FB60F9211242F933F938F939F9387
:10154000AF93BF938091E7039091E803A091E903E3
:10155000B091EA033091E60326E0230F2D3758F5CA
:101560000296A11DB11D2093E6038093E70390939B
:10157000E803A093E903B093EA038091EB03909111
:10158000EC03A091ED03B091EE030196A11DB11DF6
:101590008093EB039093EC03A093ED03B093EE03E1
:1015A000BF91AF919F918F913F912F910F900FBE5F
:1015B0000F901F90189529E8230F0396A11DB11DC8
:1015C000D2CF1F920F920FB60F9211242F933F93F9
:1015D0004F935F936F937F938F939F93AF93BF933B
:1015E000EF93FF93E0910201F09103010995FF91C0
:1015F000EF91BF91AF919F918F917F916F915F918B
:101600004F913F912F910F900FBE0F901F90189503
:101610001F920F920FB60F9211242F933F934F9367
:101620005F936F937F938F939F93AF93BF93EF934A
:10163000FF93E0910001F09101010995FF91EF9175
:10164000BF91AF919F918F917F916F915F914F91DA
:101650003F912F910F900FBE0F901F9018951F92E2
:101660000F920FB60F9211242F933F934F935F93D6
:101670006F937F938F939F93AF93BF93EF93FF935A
:101680008FEE93E00E94BD02FF91EF91BF91AF9169
:101690009F918F917F916F915F914F913F912F918A
:1016A0000F900FBE0F901F9018951F920F920FB6BC
:1016B0000F9211242F938F939F93EF93FF93E091B9
:1016C000FF03F09100048081E0910504F09106048D
:1016D00082FD1BC09081809108048F5F8F732091E1
:1016E0000904821741F0E0910804F0E0E151FC4F59
:1016F000958F80930804FF91EF919F918F912F9187
:101700000F900FBE0F901F9018958081F4CF1F92FD
:101710000F920FB60F9211242F933F934F935F9325
:101720006F937F938F939F93AF93BF93EF93FF93A9
:101730008091B900887F803609F44AC0F0F588327C
:1017400009F4A7C018F5803109F49BC0B8F48823C8
:1017500009F4F9C0883009F494C0FF91EF91BF916A
:10176000AF919F918F917F916F915F914F913F9139
:101770002F910F900FBE0F901F901895883109F48C
:1017800088C0803251F78093600314C0803409F41C
:101790009DC040F48033B9F38833F9F68093600339
:1017A00085ECB0C0803509F485C0883509F496C051
:1017B000883499F60E944B0AD0CF883909F48CC03E
:1017C00038F5883729F050F4883611F0803729F63B
:1017D00083E08093610310925F0357C0883809F457
:1017E0007BC0803919F0803809F0B7CF80915F0352
:1017F000803208F071C0E0915F0381E08E0F80932A
:101800005F038091BB00F0E0E15CFC4F80833DC052
:10181000803B39F0E0F4803A09F479C0883A09F065
:101820009CCF84E08093610310923E0310923D03AD
:10183000E0919D03F0919E03099580913D038111F4
:101840000FC081E080933D0310921D0309C0803CCE
:1018500009F4A6CF883C09F4A3CF883B09F07DCFDB
:10186000E0913E0381E08E0F80933E03F0E0E35E63
:10187000FC4F80818093BB0090913E0380913D039B
:1018800029C0809186038093BB0085EC8093BC00C7
:1018900064CF9091850380918403981758F5E09167
:1018A000850381E08E0F80938503F0E0EC59FC4FB7
:1018B0008081E9CFE091850381E08E0F80938503DD
:1018C0008091BB00F0E0EC59FC4F80839091850340
:1018D000809184039817C8F285E8D8CFE0918503FA
:1018E00081E08E0F809385038091BB00F0E0EC597E
:1018F000FC4F80838091630381115CCF81E08093F2
:10190000620384EA8093BC001092610326CF85ECC9
:101910008093BC001092610380915F03803230F4A9
:10192000E0915F03F0E0E15CFC4F108260915F03A7
:1019300070E0E0919F03F091A0038FE393E009959D
:1019400010925F030ACF1092600334CF1F920F9260
:101950000FB60F9211248F930FB6F894A89580912B
:101960006000886180936000109260000FBE8F91CC
:101970000F900FBE0F901F9018951F920F920FB6E9
:101980000F9211242F933F934F935F936F937F9305
:101990008F939F93AF93BF93EF93FF938091F00248
:1019A0009091F10201969093F1028093F002809160
:1019B000EE029091EF0201969093EF028093EE0277
:1019C0008091D10381508093D103882399F00E94A4
:1019D000E907FF91EF91BF91AF919F918F917F9117
:1019E0006F915F914F913F912F910F900FBE0F908C
:1019F0001F901895FB980E942608EBCFEFEEF3E0BE
:101A00001382128288EE93E0A0E0B0E08483958395
:101A1000A683B78329E131E03183208325EC30E0D0
:101A20003587248724EC30E03787268720EC30E0A8
:101A3000318B208B21EC30E0338B228B22EC30E099
:101A4000358B248B26EC30E0378B268B118E128E53
:101A5000138E148EECE8F4E0138212828483958353
:101A6000A683B7832BE231E0318320832091D00419
:101A70002093CF04E0ECF4E020E422831782108668
:101A8000118612861386148615861686E8E9F4E018
:101A90001382128284839583A683B7838DE391E0BA
:101AA000918380838FE084878EE0858716868AE025
:101AB000878784E690E0918B808B138A128A148A40
:101AC000158A168A88E0878B118E108E128E138EDF
:101AD00082E791E0958F848F84E891E0978F868FDD
:101AE00089E891E091A380A38BE991E093A382A37D
:101AF0008EEF90E095A384A383E091E097A386A363
:101B00000895CF93DF93CDB7DEB7A8970FB6F894BB
:101B1000DEBF0FBECDBF789484B5826084BD84B52E
:101B2000816084BD85B5826085BD85B5816085BDD8
:101B300080916E00816080936E0010928100809190
:101B40008100826080938100809181008160809318
:101B50008100809180008160809380008091B1003D
:101B600084608093B1008091B00081608093B00068
:101B700080917A00846080937A0080917A008260FC
:101B800080937A0080917A008E7F80937A00809192
:101B90007A00806880937A001092C10061E085E04D
:101BA0000E94360161E085E00E940801E091FF0398
:101BB000F091000482E08083E091FB03F091FC034C
:101BC0001082E091FD03F091FE0388E08083109283
:101BD0000704E0910304F091040486E08083E0911F
:101BE0000104F0910204808180618083E09101040E
:101BF000F0910204808188608083E0910104F0917B
:101C00000204808180688083E0910104F0910204E5
:101C100080818F7D808380E492E00E948E088FEE29
:101C200093E00E942C031092880310928703CE0148
:101C300001966C0110E000E0F82EED2C30E0A32EB0
:101C400030E0B32EC80188519C4F0431110541F09A
:101C50000E94B710F60181936F010F5F1F4FEECF07
:101C60000B891C898F2D9E2D0E948C00612C0817DA
:101C70001907B1F484E1EF2DFE2DA9E8B3E001903E
:101C80000D928A95E1F781E1EAE8F3E0A5EDB3E092
:101C900001900D928A95E1F70E94260866246394CC
:101CA00010E000E0702EC5016E01F5E1CF0ED11CF1
:101CB00025E1322E26013A94332059F04C012FEFC2
:101CC000821A920A0E94B710F60181936F01C40133
:101CD000F2CFCFA0D8A4C2010E948C00C816D906AA
:101CE00009F04EC0662049F189818F5F9D8989176F
:101CF00021F184E1EF2DFE2DA9E8B3E001900D92D2
:101D00008A95E1F781E1EAE8F3E0A5EDB3E001901F
:101D10000D928A95E1F77A94872D90E0909388034D
:101D2000809387030E94260884E692E00E948E0832
:101D30008FEE93E00E942C0341C084E1FE01759672
:101D4000A9E8B3E001900D928A95E1F781E1EAE814
:101D5000F3E0A5EDB3E001900D928A95E1F71093C1
:101D60008803009387030E94260884E1FE0175968C
:101D7000AF2DBE2D01900D928A95E1F766246394F4
:101D80000F5F1F4FF4E1AF0EB11C0333110509F0D3
:101D900089CF6110C9CF80E592E00E948E088FEE56
:101DA00093E00E942C0381E1E4E0F1E0A5EDB3E0D3
:101DB00001900D928A95E1F70E94FA070E944B0963
:101DC00062E082E00E94360161E087E00E94360115
:101DD00061E085E00E94360180E792E00E948E0873
:101DE0008FEE93E00E942C0381E00E94DE071092A8
:101DF000A60488EC90E09093A9048093A80482E361
:101E00008093A7048DEB93E09093AB048093AA0496
:101E100084E18093AC041092AD041092AE0429EAE0
:101E200033E03093B1042093B0048093B204109255
:101E3000B30488E994E09093C1048093C00461E006
:101E40000E94140580E098E2A0E0B0E08093C30413
:101E50009093C404A093C504B093C60485E090E0B9
:101E6000A0E0B0E08093C7049093C804A093C90495
:101E7000B093CA0480E090E0A0E8BFE38093CB0475
:101E80009093CC04A093CD04B093CE0460E078E2AC
:101E900085E00E949F076FE979E380E00E949F0739
:101EA00089E892E00E948E088FEE93E00E942C0356
:101EB0001092A4031092A3031092A2031092A10304
:101EC0000E94800388E092E090939E0380939D039C
:101ED00084E192E09093A00380939F0380E180933C
:101EE000BA0088EF99E09093A6038093A50384EE4F
:101EF00093E09093A8038093A70380E092E09093EF
:101F0000010180930001809169008C7F8260809341
:101F10006900E89A00E010E0DD24D3946F2D7E2D57
:101F200082E00E94700669817A8183E076956795E8
:101F30008A95E1F7660F771F660F771F072E000C53
:101F4000880B990B0E9491112FE632E143E85AE386
:101F50000E941D1220E030E04AE754E40E941D1266
:101F60000E9460117093D6036093D5036091C304FF
:101F70007091C40485E00E949F076F2D7E2D84E040
:101F80000E94700669817A81072E000C880B990BDC
:101F90000E9491114B015C016091C7047091C804CB
:101FA0008091C9049091CA040E948F119B01AC01D9
:101FB000C501B4010E94E7100E9459117093E50316
:101FC0006093E4032091D5033091D6038091DD0323
:101FD0009091DE032817390718F482E08093D0042B
:101FE0008091D403882399F01092D4038091E10367
:101FF000882309F44BC01092E1030E94FA078091F4
:10200000D1038111FECFD092E1030E944B09909140
:10201000CF048091D004981721F180EC92E00E94C7
:102020000D098FEE93E00E942C038091CF040E9453
:102030000F0989EC92E00E940D098FEE93E00E9457
:102040002C038091D0040E940F098BE491E00E9440
:102050003D088FEE93E00E942C038091D004809382
:10206000CF048091D004813009F44CC0D0F082308C
:1020700009F46BC00115110509F450CF0E94A902A3
:10208000882309F44BCF0E94000048CF8CE992E0EE
:102090000E948E080E94FA078FEA92E00E948E0842
:1020A000B4CF61E087E00E94080161E085E00E9412
:1020B000080164EF71E080E090E00E94CE01809121
:1020C000E103811109C08091D2039091D30301965D
:1020D0009093D3038093D2032091E2033091E303E2
:1020E0008091D2039091D3032817390718F68EEC0C
:1020F00092E00E948E088FEE93E00E942C03D09213
:10210000D004B8CF1092E1031092D3031092D203FF
:102110008091D1038111FECF2091D5033091D60358
:102120008091DB039091DC038217930748F4809140
:10213000D7039091D8030E949C081092D0049ACFA4
:102140008091D9039091DA03F6CF2091D503309195
:10215000D6038091DF039091E0038217930768F321
:102160008091D7039091D8030E949C0883CFF9995E
:10217000FECF92BD81BDF89A992780B50895A1E25E
:102180001A2EAA1BBB1BFD010DC0AA1FBB1FEE1FF1
:10219000FF1FA217B307E407F50720F0A21BB30B3C
:1021A000E40BF50B661F771F881F991F1A9469F7B8
:1021B00060957095809590959B01AC01BD01CF0114
:1021C0000895EE0FFF1F0590F491E02D09940E94F1
:1021D000FB100C94E3110E94DC1158F00E94D51101
:1021E00040F029F45F3F29F00C94CC1151110C946C
:1021F00017120C94D2110E94F41168F39923B1F3D1
:10220000552391F3951B550BBB27AA27621773071C
:10221000840738F09F5F5F4F220F331F441FAA1FB0
:10222000A9F335D00E2E3AF0E0E832D0915050406C
:10223000E695001CCAF72BD0FE2F29D0660F771F1A
:10224000881FBB1F261737074807AB07B0E809F000
:10225000BB0B802DBF01FF2793585F4F3AF09E3F85
:10226000510578F00C94CC110C9417125F3FE4F3F5
:10227000983ED4F3869577956795B795F7959F5FC8
:10228000C9F7880F911D9695879597F90895E1E014
:10229000660F771F881FBB1F621773078407BA0773
:1022A00020F0621B730B840BBA0BEE1F88F7E095CE
:1022B00008950E9460116894B1110C94171208954A
:1022C0000E94FC1188F09F5798F0B92F9927B751B9
:1022D000B0F0E1F0660F771F881F991F1AF0BA95CA
:1022E000C9F714C0B13091F00E941612B1E0089500
:1022F0000C941612672F782F8827B85F39F0B93FF2
:10230000CCF3869577956795B395D9F73EF490957C
:102310008095709561957F4F8F4F9F4F0895E894FA
:1023200009C097FB3EF490958095709561957F4F1D
:102330008F4F9F4F9923A9F0F92F96E9BB279395CB
:10234000F695879577956795B795F111F8CFFAF4DB
:10235000BB0F11F460FF1BC06F5F7F4F8F4F9F4F0C
:1023600016C0882311F096E911C0772321F09EE86A
:10237000872F762F05C0662371F096E8862F70E0D0
:1023800060E02AF09A95660F771F881FDAF7880FAA
:102390009695879597F9089597F99F6780E870E07B
:1023A00060E008959FEF80EC089500240A941616CB
:1023B000170618060906089500240A941216130633
:1023C000140605060895092E0394000C11F48823C1
:1023D00052F0BB0F40F4BF2B11F460FF04C06F5FDD
:1023E0007F4F8F4F9F4F089557FD9058440F551FB3
:1023F00059F05F3F71F04795880F97FB991F61F087
:102400009F3F79F087950895121613061406551FFD
:10241000F2CF4695F1DF08C0161617061806991F69
:10242000F1CF86957105610508940895E894BB275E
:1024300066277727CB0197F908950E9430120C94F4
:10244000E3110E94D51138F00E94DC1120F0952391
:1024500011F00C94CC110C94D21111240C9417127D
:102460000E94F41170F3959FC1F3950F50E0551F32
:10247000629FF001729FBB27F00DB11D639FAA27D9
:10248000F00DB11DAA1F649F6627B00DA11D661F28
:10249000829F2227B00DA11D621F739FB00DA11D49
:1024A000621F839FA00D611D221F749F3327A00D03
:1024B000611D231F849F600D211D822F762F6A2F9F
:1024C00011249F5750409AF0F1F088234AF0EE0F04
:1024D000FF1FBB1F661F771F881F91505040A9F731
:1024E0009E3F510580F00C94CC110C9417125F3F65
:1024F000E4F3983ED4F3869577956795B795F7956D
:10250000E7959F5FC1F7FE2B880F911D96958795E4
:0825100097F90895F894FFCF3C
:102518003E023E0200003200E100581BA00F941159
:10252800007800000000000000DF023F026C022C6F
:10253800039D027B028F0200000000D303C803DB67
:10254800079E03C103AE039F030000000093046BC2
:1025580004DB07BA04B40451043C040D0A00736C8C
:1025680065657028290077616B6575702100535483
:102578004154455F414354495645005354415445DD
:102588005F534C4545500053544154455F554E44A4
:102598004552564F4C5441474500494E56414C49C7
:1025A800442028002D2D2D2D2D2D2D2D2D2D2D2D7B
:1025B8002D2D2D2D2D2D2D2D2D2D2D2D2D2D2D2D43
:1025C8002D2D00736C656570496E74657276616C4B
:1025D800466173743A2000736C656570496E746562
:1025E8007276616C536C6F773A2000736C65657016
:1025F800496E74657276616C536C6F77566F6C7444
:102608006167653A2000756E646572766F6C7461F7
:1026180067654C6F636B6F75743A2000756E6465FF
:1026280072766F6C746167654879737465726573E7
:1026380069733A200064697361626C6554696D65F9
:102648006F75743A200074696D656F75743A20006F
:10265800536F6C617243616D506920496E697400F3
:10266800496E697469616C697A696E67204545507D
:10267800524F4D00426C6F636B20666F756E64003D
:10268800547279696E6720746F20696E6974696124
:102698006C697A6520494E410053657474696E67A8
:1026A8002075702052504920493243006565707288
:1026B8006F6D207772697465207374617274006538
:1026C8006570726F6D20777269746520656E64003D
:1026D8005B73746174655D2000202D3E2000546991
:1026E8006D656F7574207265616368656421205338
:0E26F80068757474696E6720646F776E2100D8
:00000001FF
