:100000000C9462000C94180B0C94F10A0C948A0066
:100010000C948A000C948A000C94B60C0C948A0000
:100020000C948A000C948A000C948A000C948A0028
:100030000C948A000C948A000C948A000C948A0018
:100040000C94A70A0C948A000C94650B0C943F0B3B
:100050000C948A000C948A000C94CD0C0C948A00A9
:100060000C94970B0C948A000000000024002700D9
:100070002A0000000000250028002B0000000000DE
:1000800023002600290004040404040404040202DA
:100090000202020203030303030301020408102007
:1000A0004080010204081020010204081020000012
:1000B0000008000201000003040700000000000027
:1000C00000000E0D11241FBECFEFD8E0DEBFCDBF64
:1000D00012E0A0E0B1E0E8E3F5E202C005900D9285
:1000E000A23FB107D9F724E0A2EFB2E001C01D9210
:1000F000AD3DB207E1F710E0C2E6D0E004C02197C1
:10010000FE010E94F110C136D107C9F70E94910D7E
:100110000C949A120C940000FC0167E18FEF9FEFA2
:100120006150C9F02191322F3927232F22952F704A
:100130002327422F50E0382FCA01982F8827929505
:10014000907F82279327A5E0440F551FAA95E1F7DA
:1001500084279527E5CF0895833081F028F48130F6
:1001600099F08230A9F008958730A9F08830C9F05D
:100170008430B1F4809180008F7D03C08091800035
:100180008F7780938000089584B58F7784BD08951C
:1001900084B58F7DFBCF8091B0008F778093B000C6
:1001A00008958091B0008F7DF9CFCF93DF93282FF2
:1001B00030E0F901E255FF4F8491F901E656FF4F17
:1001C000D491F901EA57FF4FC491CC23A1F08111DA
:1001D0000E94AC00EC2FF0E0EE0FFF1FE458FF4F41
:1001E000A591B491EC91ED2381E090E009F480E0D9
:1001F000DF91CF91089580E090E0FACFFC018485F3
:100200000E94D5000895FC0185850E94D5000895BF
:100210001F93CF93DF93282F30E0F901E255FF4F72
:100220008491F901E656FF4FD491F901EA57FF4F47
:10023000C491CC23A9F0162F81110E94AC00EC2FA1
:10024000F0E0EE0FFF1FEE58FF4FA591B4918FB76E
:10025000F894EC91111108C0D095DE23DC938FBF88
:10026000DF91CF911F910895DE2BF8CFCF93DF93CD
:1002700090E0FC01E656FF4F24918A579F4FFC0106
:1002800084918823C9F090E0880F991FFC01E859F8
:10029000FF4FA591B491FC01EE58FF4FC591D49149
:1002A00061110DC09FB7F8948C91209582238C9397
:1002B0008881282328839FBFDF91CF9108956230E2
:1002C00051F49FB7F8943C91822F809583238C93AF
:1002D000E8812E2BEFCF8FB7F894EC912E2B2C9337
:1002E0008FBFEACFCF93DF93FC01C485DFB7F894CB
:1002F00060E08C2F0E94080161E08C2F0E94360183
:10030000DFBFDF91CF910895FC01668584850C9451
:100310003601CF93DF93FC01C585DFB7F89460E029
:100320008C2F0E94080161E08C2F0E943601DFBFF4
:10033000DF91CF910895FC01668585850C94360187
:100340008330910528F0880F991F04970197F1F7E2
:1003500008953FB7F8948091F7039091F803A09126
:10036000F903B091FA0326B5A89B05C02F3F19F0F9
:100370000196A11DB11D3FBFBA2FA92F982F882725
:10038000BC01CD01620F711D811D911D43E0660FFF
:10039000771F881F991F4A95D1F708958F929F92D2
:1003A000AF92BF92CF92DF92EF92FF924B015C012E
:1003B0000E94A9016B017C010E94A9016C197D09B1
:1003C0008E099F09683E734081059105A8F321E0DD
:1003D000821A9108A108B10888EEC80E83E0D81EE1
:1003E000E11CF11C81149104A104B10429F7FF90D0
:1003F000EF90DF90CF90BF90AF909F908F90089537
:100400008091DC04811103C081E08093DC040895B5
:10041000E091AF03F091B003309729F01092AA0356
:100420001092A90309940895CF93DF93AC01E09152
:10043000AD03F091AE033097F1F09091AC03809151
:10044000AB039817C0F090E0292F30E0261737074C
:1004500054F4D901A550BD4F240F351FE90128815F
:100460002C939F5FF1CF1092AC036093AB03CB0151
:10047000DF91CF910994DF91CF9108950895AF92C4
:10048000BF92CF92DF92EF92FF920F931F93CF9381
:10049000DF936C017B018B01040F151FEB015E01E3
:1004A000AE18BF08C017D10759F06991D601ED9178
:1004B000FC910190F081E02DC6010995892B79F717
:1004C000C501DF91CF911F910F91FF90EF90DF90C9
:1004D000CF90BF90AF900895FC01538D448D252F90
:1004E00030E0842F90E0821B930B541710F0CF96CE
:1004F000089501970895FC01918D828D981761F000
:10050000A28DAE0FBF2FB11D5D968C91928D9F5F16
:100510009F73928F90E008958FEF9FEF0895FC01F5
:10052000918D828D981731F0828DE80FF11D858DA8
:1005300090E008958FEF9FEF0895FC01918D228D3B
:10054000892F90E0805C9F4F821B91098F739927C0
:1005500008958BEF93E00E949D0221E0892B09F41E
:1005600020E0822F089580E090E0892B29F00E94FE
:10057000A90281110C9400000895FC01A48DA80F1C
:10058000B92FB11DA35ABF4F2C91848D90E00196D5
:100590008F739927848FA689B7892C93A089B189F5
:1005A0008C91837080648C93938D848D981306C096
:1005B0000288F389E02D80818F7D80830895EF92FA
:1005C000FF920F931F93CF93DF93EC0181E0888F0D
:1005D0009B8D8C8D98131AC0E889F989808185FFDD
:1005E00015C09FB7F894EE89FF896083E889F9897F
:1005F00080818370806480839FBF81E090E0DF9181
:10060000CF911F910F91FF90EF900895F62E0B8DD3
:1006100010E00F5F1F4F0F731127E02E8C8D8E118E
:100620000CC00FB607FCFACFE889F989808185FFF5
:10063000F5CFCE010E94BD02F1CFEB8DEC0FFD2F67
:10064000F11DE35AFF4FF0829FB7F8940B8FEA89B0
:10065000FB8980818062CFCFCF93DF93EC01888DBF
:100660008823B9F0AA89BB89E889F9898C9185FD2D
:1006700003C0808186FD0DC00FB607FCF7CF8C91BB
:1006800085FFF2CF808185FFEDCFCE010E94BD02B4
:10069000E9CFDF91CF91089520914103260F3327B1
:1006A000331F21323105ECF420916503FC0190E009
:1006B00080E0243069F082E00895A0914103219107
:1006C000AC014F5D5C4FA40FB52FB11D2C9301966B
:1006D000861798F380914103680F6093410380E08F
:1006E000089581E00895ECEBF0E080818A7B8083BF
:1006F00060E082E10E94080160E083E10C9408015F
:100700001092650381E0809367031092660361E0B5
:1007100082E10E94080161E083E10E940801E9EBA7
:10072000F0E080818E7F808380818D7F808380E276
:100730008093B80085E48093BC0008950895E0910B
:10074000AC038091AB03E81730F4F0E0E550FD4FC7
:10075000808190E008958FEF9FEF08959091AC0312
:100760008091AB032FEF3FEF981748F4E92FF0E0AB
:10077000E550FD4F208130E09F5F9093AC03C901AD
:1007800008958091AB039091AC03891B990B089558
:10079000CF93DF93CB01EA01642F0E944C03CE017B
:1007A000DF91CF910895CF93DF931F92CDB7DEB73E
:1007B000698361E0CE0101960E944C0381E090E0E4
:1007C0000F90DF91CF910895E091F702F0E0E352AE
:1007D000FC4F608188E994E00C94D30341155105E6
:1007E00029F4EAE7F0E080818F7780836A30710531
:1007F000B9F0CB01880F991F880F991F807267701D
:100800006860682B88E10FB6F894A8958093600023
:100810000FBE60936000E0E6F0E08081806480833A
:10082000232BD9F483B7817F846083BFF89483B787
:10083000816083BF85B7806685BF8F7D85BF7894D3
:10084000889583B78E7F83BF7894452B29F4EAE798
:10085000F0E0808180688083089583B7817F846021
:1008600083BFF89483B7816083BF7894889583B7FA
:100870008E7F83BF7894E9CFDC015596EC91559734
:1008800056968C915697E81748F452968D919C9104
:10089000E80FF92FF11D808190E008958FEF9FEF11
:1008A0000895DC015596EC91559756968C91569784
:1008B000E81770F452968D919C91539721E02E0F7A
:1008C00055962C93E80FF92FF11D808190E0089543
:1008D0008FEF9FEF0895CF92DF92EF92FF920F93E9
:1008E0001F93CF93DF936C01EB017B01E40EF51EA8
:1008F00010E000E0CE15DF0561F06991D601ED91C1
:10090000FC910190F081E02DC6010995080F191F97
:10091000F1CFC801DF91CF911F910F91FF90EF9020
:10092000DF90CF900895DC015B96EC915B975A962F
:100930008C915A97E81748F081E090E013969C93C9
:100940008E93129790E080E0089558968D919C9137
:10095000599721E02E0F5B962C93E80FF92FF11D8C
:10096000608381E090E00895FC0186899589891B68
:10097000990B089508950F931F93CF93DF93EC0184
:1009800088859985892BD9F40E94A9010C811D8144
:100990002E813F81DC01CB01801B910BA20BB30B9D
:1009A00080959095A095B0958827B7FD8395992758
:1009B000AA27BB27DF91CF911F910F9108952FB7E1
:1009C000F8948091F3039091F403A091F503B09112
:1009D000F6032FBF4C815D816E817F81841B950B57
:1009E000A60BB70BDDCFFC01408351836283738379
:1009F00081E090E0918780878FB7F8944091F3036E
:100A00005091F4036091F5037091F6038FBF8081DC
:100A10009181A281B381840F951FA61FB71F848384
:100A20009583A683B7830895FF920F931F93CF9367
:100A3000DF93CDB7DEB72A970FB6F894DEBF0FBEAF
:100A4000CDBF8C01F62EDC0150964D915C9170E08B
:100A500060E021E030E0CE0101960E94F304D8016D
:100A60009096ED91FC91C8010995F801878590E079
:100A70000E94A001D8015C96ED91FC91C8010995F6
:100A8000F801878590E00E94A001FF20B1F0BE012F
:100A90006F5F7F4FC8010E947605811114C082E00C
:100AA00090E02A960FB6F894DEBF0FBECDBFDF915F
:100AB000CF911F910F91FF900895D8019296ED91DB
:100AC000FC91C8010995F801878590E00E94A0017A
:100AD000D8015E96ED91FC91C8010995F8018785D2
:100AE00090E00E94A00190E080E0DBCF0F931F9385
:100AF000CF93DF93EC018B01EAA1FBA10995EEA155
:100B0000FFA1CE01099581110FC0C8010E94BB044D
:100B10008823A9F360E0CE010E94140580E0DF91F4
:100B2000CF911F910F91089581E0F9CFEF92FF923D
:100B30000F931F93CF93DF93CDB7DEB72A970FB6EE
:100B4000F894DEBF0FBECDBF8C01E62EDC015096BF
:100B50004D915C9170E060E021E030E0CE010196C3
:100B60000E94F30498E0F92ED8019096ED91FC9143
:100B7000C8010995D801E7FE23C05E96ED91FC916E
:100B8000C8010995F801878590E00E94A001BE0187
:100B90006F5F7F4FC8010E947605811115C082E00A
:100BA000E82EF12CC7012A960FB6F894DEBF0FBECF
:100BB000CDBFDF91CF911F910F91FF90EF900895DE
:100BC0005C96ED91FC91DCCFD8011F968C9190E062
:100BD0000E94A001EE0CCE0101960E94BB04882366
:100BE00029F061E0C8010E941405D9CFFA94F110F0
:100BF000BBCFD8019096ED91FC91C8010995D80121
:100C00005E96ED91FC91C8010995F801878590E009
:100C10000E94A001BE016F5F7F4FC8010E94760550
:100C2000882309F4BCCFD8019496ED91FC91C801BA
:100C3000099591E0811101C090E0E92EF8018785C6
:100C400090E00E94A001D8019096ED91FC91C8011E
:100C50000995A8CF1F93CF93DF93EC01162FEC8D4E
:100C6000FD8D09958F8590E00E94A001E8A1F9A172
:100C7000CE0109958F8590E00E94A001612FCE01E1
:100C8000DF91CF911F910C9496051F93CF93DF9323
:100C9000EC016F89660F0E942A0681309105D1F020
:100CA00010E0029729F484E0DF91CF911F9108951D
:100CB0008B8D181788F4E88DF98DE10FF11D608197
:100CC000CE010E9496058130910541F0029759F3BB
:100CD0001F5FEECF82E0E8CF80E0E6CF83E0E4CF95
:100CE0008F929F92AF92BF92CF92DF92EF92FF923C
:100CF0000F931F93CF93DF93CDB7DEB72A970FB62D
:100D0000F894DEBF0FBECDBF6B01A091CC04B091B3
:100D1000CD049091CE0457969C9357975B961C9266
:100D20005B97ED91FC9111970190F081E02D682F78
:100D3000CD0109950091CC041091CD04C8010E9409
:100D4000450661E0C8010E94140561E070E080E0A2
:100D500090E00E94CE010091CC041091CD046091EE
:100D6000CE04D80155961C92559756961C92660F44
:100D70006F5FC8010E942A06892B09F04FC0B12C71
:100D8000A12C8A2CF8018489A81608F047C0E288B3
:100D9000F388EA0CFB1CD7011C924089518970E052
:100DA00060E021E030E0CE0101960E94F30498E07B
:100DB000992EF7018081880F8083D8019096ED915C
:100DC000FC91C8010995D8015E96ED91FC91C8018E
:100DD0000995F801878590E00E94A001BE016F5F30
:100DE0007F4FC8010E9476058823C1F0D8011F9665
:100DF0008C9190E00E94A001D8019696ED91FC9113
:100E0000C801099581113EC0CE0101960E94BB0424
:100E1000882391F361E0C8010E94140561E0C801D4
:100E20000E9414058091CC049091CD04DC01ED91D9
:100E3000FC910284F385E02D0995182F8091CC0454
:100E40009091CD04DC01ED91FC910284F385E02DBD
:100E5000099520E0822B912BF601918380832A96BD
:100E60000FB6F894DEBF0FBECDBFDF91CF911F91BB
:100E70000F91FF90EF90DF90CF90BF90AF909F9039
:100E80008F900895D8019496ED91FC91C801099531
:100E9000882321F0F7018081816080839A949110EA
:100EA00088CFD8019096ED91FC91C8010995B1E0E9
:100EB0008B1649F1D8015C96ED91FC91C80109951A
:100EC000F801878590E00E94A001BE016F5F7F4F0F
:100ED000C8010E947605882309F4A0CFD8011F9687
:100EE0008C9190E00E94A001D8019696ED91FC9122
:100EF000C801099581110CC0CE0101960E94BB0466
:100F0000882391F387CFD8015E96ED91FC91D6CFDF
:100F1000F801878590E00E94A001D8019096ED919C
:100F2000FC91C8010995F80186898F5F868BAA9488
:100F3000AB2809F473CFAA24A394B12C22CF0F932A
:100F40001F93CF93DF93162F072FCCECD4E0A8810B
:100F5000B9819A8157969C9357975B961C925B97A1
:100F6000ED91FC9111970190F081E02D682FCD015A
:100F7000099588819981DC01ED91FC910190F081C6
:100F8000E02D602F099588819981DC01ED91FC911C
:100F90000190F081E02D612F09950990D881C02D35
:100FA000CE010E94450661E0CE01DF91CF911F91F5
:100FB0000F910C94140590E080E00895CF93C82F12
:100FC00061E080E10E9436016C2F80E1CF910C94AA
:100FD00008018091F40281BD8091F50282BDE0910B
:100FE000F202F091F302808180BD8FB38C608FBBE1
:100FF000F99A0895CF93DF9385E1EDEDF3E0AEE844
:10100000B3E001900D928A95E1F740918B035091E6
:101010008C0328E1249FC001259F900D112480504E
:1010200090409093F5028093F4022093D903CDE889
:10103000D3E0D093F302C093F202CE010E948C0061
:101040009F8B8E8BDF91CF910C94E90780918B035E
:1010500090918C0301968A32910550F490938C0301
:1010600080938B0380918D038F5F80938D03089510
:1010700010928C0310928B03F5CFFC01019000209D
:10108000E9F73197AF01481B590BBC018BEF93E097
:101090000C943F028F929F92AF92BF920F931F9337
:1010A000CF93DF93CDB7DEB7A1970FB6F894DEBF2D
:1010B0000FBECDBF19A2423008F44AE08E010F5D89
:1010C0001F4F842E912CB12CA12CA50194010E94BC
:1010D000CF10E62FB901CA01EA30F4F4E05DD8017F
:1010E000EE938D01232B242B252B79F790E080E0C4
:1010F000109719F0CD010E943D08A1960FB6F89403
:10110000DEBF0FBECDBFDF91CF911F910F91BF907A
:10111000AF909F908F900895E95CE1CFCF93DF93DC
:101120000E943D08EC018FE491E00E943D088C0F85
:101130009D1FDF91CF910895CF93DF93EC0182E55E
:1011400091E00E948E088BEF93E00E942C0380E0D8
:101150000E94DE0760E082E00E94080161E082E018
:101160000E94360160E087E00E94080160E085E0AF
:101170000E9408010E9473038091F9029091FA0283
:101180008C179D0781F001969093FA028093F902E3
:1011900030E020E050E040E069E070E088EF92E06D
:1011A0000E94EE03E9CF1092FA021092F90262E077
:1011B00082E00E94360181E00E94DE071092AC03BB
:1011C0001092AB031092AA031092A9030E9480030D
:1011D00088E092E09093A6038093A50384E192E0D7
:1011E0009093A8038093A70380E18093BA0088EFCF
:1011F00099E09093AE038093AD0384EE93E09093D7
:10120000B0038093AF038AE591E00E948E088BEFD4
:1012100093E0DF91CF910C942C030C943D08CF9375
:10122000C82F8FE691E0C130E9F082E691E0C1304D
:10123000C8F08BE791E0C230A9F08EE891E00E94FF
:101240000D098BEF93E00E942C036C2F70E090E06F
:1012500080E04AE00E944A088BEF93E00E942C0352
:1012600088E591E00E940D098BEF93E0CF910C94FB
:101270002C03CF93DF93BC0190E080E04AE00E9412
:101280004A08EC018FE491E00E943D088C0F9D1FFD
:10129000DF91CF910895CF93DF9381E591E00E9494
:1012A0008E088BEF93E00E942C0388E991E00E9466
:1012B0008E088BEF93E00E942C0380EF91E00E9458
:1012C0000D098BEF93E00E942C03CDEDD3E08881D4
:1012D00099810E9439098BEF93E00E942C0387EBE0
:1012E00091E00E940D098BEF93E00E942C038A810C
:1012F0009B810E9439098BEF93E00E942C038BECB9
:1013000091E00E940D098BEF93E00E942C038C81E9
:101310009D810E9439098BEF93E00E942C038FED91
:1013200091E00E940D098BEF93E00E942C038E81C7
:101330009F810E9439098BEF93E00E942C038AEF72
:1013400091E00E940D098BEF93E00E942C038885A9
:1013500099850E9439098BEF93E00E942C0380E16C
:1013600092E00E940D098BEF93E00E942C038A8586
:101370009B850E9439098BEF93E00E942C0389E240
:1013800092E00E940D098BEF93E00E942C036C8584
:1013900070E090E080E04AE00E944A088FE491E02B
:1013A0000E943D088BEF93E00E942C038AE392E0B9
:1013B0000E940D098BEF93E00E942C038D859E8582
:1013C0000E9439098BEF93E00E942C0388E991E099
:1013D0000E948E088BEF93E00E942C0381E591E040
:1013E0000E948E088BEF93E0DF91CF910C942C0339
:1013F000CF93DF9300D0CDB7DEB79A83898360E8BF
:1014000088E994E00E94D30389819A81019731F49D
:1014100088E994E00E94AE038093F70289819A8163
:10142000029779F588E994E00E94AE038093F70271
:1014300088E994E00E94AE038093F6028091F7025F
:101440008531F8F4E091F7028091F602F0E0E35282
:10145000FC4F80838091F7028C3099F08091F702E5
:10146000813179F08091F702823159F08091F70251
:10147000833139F08091F702843119F081E0809353
:10148000DC038091AB039091AC03891B990B181678
:10149000190664F488E994E00E94AE03BC01990F38
:1014A000880B990B40E10E944A08EBCF0F900F90F8
:1014B000DF91CF910895CF93DF9385ED8093BC00AA
:1014C00080911D0390911E03A0911F03B0912003F2
:1014D0000796A11DB11D23E0B695A7959795879511
:1014E0002A95D1F72091BC0024FD03C0109265031A
:1014F0002BC040911D0350911E0360911F037091FA
:101500002003452B462B472B69F30097A105B10516
:1015100041F02AE12A95F1F700C00197A109B1092C
:10152000E1CF80911C0391E090931B03882361F02D
:10153000C091B800D091BA000E9473030E9480034A
:10154000D093BA00C093B800DF91CF9108951F9255
:101550000F920FB60F9211242F933F938F939F9367
:10156000AF93BF938091F3039091F403A091F5039F
:10157000B091F6033091F20326E0230F2D3758F592
:101580000296A11DB11D2093F2038093F303909363
:10159000F403A093F503B093F6038091F7039091C1
:1015A000F803A091F903B091FA030196A11DB11DB2
:1015B0008093F7039093F803A093F903B093FA0391
:1015C000BF91AF919F918F913F912F910F900FBE3F
:1015D0000F901F90189529E8230F0396A11DB11DA8
:1015E000D2CF1F920F920FB60F9211242F933F93D9
:1015F0004F935F936F937F938F939F93AF93BF931B
:10160000EF93FF93E0910201F09103010995FF919F
:10161000EF91BF91AF919F918F917F916F915F916A
:101620004F913F912F910F900FBE0F901F901895E3
:101630001F920F920FB60F9211242F933F934F9347
:101640005F936F937F938F939F93AF93BF93EF932A
:10165000FF93E0910001F09101010995FF91EF9155
:10166000BF91AF919F918F917F916F915F914F91BA
:101670003F912F910F900FBE0F901F9018951F92C2
:101680000F920FB60F9211242F933F934F935F93B6
:101690006F937F938F939F93AF93BF93EF93FF933A
:1016A0008BEF93E00E94BD02FF91EF91BF91AF914C
:1016B0009F918F917F916F915F914F913F912F916A
:1016C0000F900FBE0F901F9018951F920F920FB69C
:1016D0000F9211242F938F939F93EF93FF93E09199
:1016E0000B04F0910C048081E0911104F09112043C
:1016F00082FD1BC09081809114048F5F8F732091B5
:101700001504821741F0E0911404F0E0E550FC4F1D
:10171000958F80931404FF91EF919F918F912F915A
:101720000F900FBE0F901F9018958081F4CF1F92DD
:101730000F920FB60F9211242F933F934F935F9305
:101740006F937F938F939F93AF93BF93EF93FF9389
:101750008091B900887F803609F44AC0F0F588325C
:1017600009F4A7C018F5803109F49BC0B8F48823A8
:1017700009F4F9C0883009F494C0FF91EF91BF914A
:10178000AF919F918F917F916F915F914F913F9119
:101790002F910F900FBE0F901F901895883109F46C
:1017A00088C0803251F78093640314C0803409F4F8
:1017B0009DC040F48033B9F38833F9F68093640315
:1017C00085ECB0C0803509F485C0883509F496C031
:1017D000883499F60E945B0AD0CF883909F48CC00E
:1017E00038F5883729F050F4883611F0803729F61B
:1017F00083E0809365031092630357C0883809F42F
:101800007BC0803919F0803809F0B7CF809163032D
:10181000803208F071C0E091630381E08E0F809305
:1018200063038091BB00F0E0ED5BFC4F80833DC023
:10183000803B39F0E0F4803A09F479C0883A09F045
:101840009CCF84E080936503109242031092410381
:10185000E091A503F091A6030995809141038111C0
:101860000FC081E0809341031092210309C0803CA6
:1018700009F4A6CF883C09F4A3CF883B09F07DCFBB
:10188000E091420381E08E0F80934203F0E0EF5D30
:10189000FC4F80818093BB00909142038091410373
:1018A00029C080918A038093BB0085EC8093BC00A3
:1018B00064CF9091890380918803981758F5E0913F
:1018C000890381E08E0F80938903F0E0E859FC4F93
:1018D0008081E9CFE091890381E08E0F80938903B5
:1018E0008091BB00F0E0E859FC4F80839091890320
:1018F000809188039817C8F285E8D8CFE0918903D2
:1019000081E08E0F809389038091BB00F0E0E8595D
:10191000FC4F80838091670381115CCF81E08093CD
:10192000660384EA8093BC001092650326CF85ECA1
:101930008093BC001092650380916303803230F481
:10194000E0916303F0E0ED5BFC4F10826091630374
:1019500070E0E091A703F091A80383E493E0099578
:10196000109263030ACF1092640334CF1F920F9238
:101970000FB60F9211248F930FB6F894A89580910B
:101980006000886180936000109260000FBE8F91AC
:101990000F900FBE0F901F9018951F920F920FB6C9
:1019A0000F9211242F933F934F935F936F937F93E5
:1019B0008F939F93AF93BF93EF93FF938091F40224
:1019C0009091F50201969093F5028093F402809134
:1019D000F2029091F30201969093F3028093F20247
:1019E0008091D90381508093D903882399F00E9474
:1019F000E907FF91EF91BF91AF919F918F917F91F7
:101A00006F915F914F913F912F910F900FBE0F906B
:101A10001F901895FB980E942608EBCFEBEFF3E0A0
:101A20001382128288EE93E0A0E0B0E08483958375
:101A3000A683B7832DE131E03183208325EC30E0AC
:101A40003587248724EC30E03787268720EC30E088
:101A5000318B208B21EC30E0338B228B22EC30E079
:101A6000358B248B26EC30E0378B268B118E128E33
:101A7000138E148EE8E9F4E0138212828483958336
:101A8000A683B7832FE231E0318320832091DC04E9
:101A90002093DB04ECECF4E020E422831782108630
:101AA000118612861386148615861686E4EAF4E0FB
:101AB0001382128284839583A683B78381E491E0A5
:101AC000918380838FE084878EE0858716868AE005
:101AD000878784E690E0918B808B138A128A148A20
:101AE000158A168A88E0878B118E108E128E138EBF
:101AF00082E791E0958F848F84E891E0978F868FBD
:101B000089E891E091A380A38BE991E093A382A35C
:101B10008EEF90E095A384A383E091E097A386A342
:101B20000895CF93DF93CDB7DEB7E0970FB6F89463
:101B3000DEBF0FBECDBF789484B5826084BD84B50E
:101B4000816084BD85B5826085BD85B5816085BDB8
:101B500080916E00816080936E0010928100809170
:101B600081008260809381008091810081608093F8
:101B70008100809180008160809380008091B1001D
:101B800084608093B1008091B00081608093B00048
:101B900080917A00846080937A0080917A008260DC
:101BA00080937A0080917A008E7F80937A00809172
:101BB0007A00806880937A001092C10061E085E02D
:101BC0000E94360161E085E00E940801E0910B046B
:101BD000F0910C0482E08083E0910704F091080406
:101BE0001082E0910904F0910A0488E08083109249
:101BF0001304E0910F04F091100486E08083E091DB
:101C00000D04F0910E04808180618083E0910D04C9
:101C1000F0910E04808188608083E0910D04F09142
:101C20000E04808180688083E0910D04F0910E04A1
:101C300080818F7D808384E492E00E948E088BEF08
:101C400093E00E942C0310928C0310928B03CE0120
:101C500001966C0110E000E0F82EED2C30E0A32E90
:101C600030E0B32EC80188529C4F0831110541F075
:101C70000E94C710F60181936F010F5F1F4FEECFD7
:101C80000F89188D8F2D9E2D0E948C00612C0817B6
:101C90001907B1F488E1EF2DFE2DADE8B3E0019016
:101CA0000D928A95E1F785E1EEE8F3E0ADEDB3E062
:101CB00001900D928A95E1F70E94260866246394AC
:101CC00010E000E0702EC5016E01F9E1CF0ED11CCD
:101CD00029E1322E26013A94332059F04C012FEF9E
:101CE000821A920A0E94C710F60181936F01C40103
:101CF000F2CFCFA4D8A8C2010E948C00C816D90682
:101D000009F04EC0662049F189818F5F998D89174E
:101D100021F188E1EF2DFE2DADE8B3E001900D92A9
:101D20008A95E1F785E1EEE8F3E0ADEDB3E00190EF
:101D30000D928A95E1F77A94872D90E090938C0329
:101D400080938B030E94260888E692E00E948E080A
:101D50008BEF93E00E942C0341C088E1FE0179964D
:101D6000ADE8B3E001900D928A95E1F785E1EEE8E8
:101D7000F3E0ADEDB3E001900D928A95E1F7109399
:101D80008C0300938B030E94260888E1FE0179965C
:101D9000AF2DBE2D01900D928A95E1F766246394D4
:101DA0000F5F1F4FF8E1AF0EB11C0A32110509F0A9
:101DB00089CF6110C9CF84E592E00E948E088BEF35
:101DC00093E00E942C0385E1E4E0F1E0ADEDB3E0A7
:101DD00001900D928A95E1F70E94FA070E944B0943
:101DE00062E082E00E94360161E087E00E943601F5
:101DF00061E085E00E94360184E792E00E948E084F
:101E00008BEF93E00E942C0381E00E94DE0710928A
:101E1000B20488EC90E09093B5048093B40482E31C
:101E20008093B30485EC93E09093B7048093B60459
:101E300084E18093B8041092B9041092BA0421EBA3
:101E400033E03093BD042093BC048093BE04109211
:101E5000BF0484EA94E09093CD048093CC0461E0C5
:101E60000E94140580E098E2A0E0B0E08093CF04E7
:101E70009093D004A093D104B093D20485E090E075
:101E8000A0E0B0E08093D3049093D404A093D50451
:101E9000B093D60480E090E0A0E8BFE38093D7043D
:101EA0009093D804A093D904B093DA0460E078E268
:101EB00085E00E949F076FE979E380E00E949F0719
:101EC0008DE892E00E948E088BEF93E00E942C0335
:101ED0001092AC031092AB031092AA031092A903C4
:101EE0000E94800388E092E09093A6038093A5036C
:101EF00084E192E09093A8038093A70380E180930C
:101F0000BA0088EF99E09093AE038093AD0384EE1E
:101F100093E09093B0038093AF0380E092E09093BE
:101F2000010180930001809169008C7F8260809321
:101F30006900E89A00E010E0DD24D3946F2D7E2D37
:101F400082E00E94700669817A8183E076956795C8
:101F50008A95E1F7660F771F660F771F072E000C33
:101F6000880B990B0E94A1112FE632E143E85AE356
:101F70000E942D1220E030E04AE754E40E942D1226
:101F80000E9470117093DE036093DD036091CF04B3
:101F90007091D00485E00E949F076F2D7E2D84E014
:101FA0000E94700669817A81072E000C880B990BBC
:101FB0000E94A1114B015C016091D3047091D40483
:101FC0008091D5049091D6040E949F119B01AC0191
:101FD000C501B4010E94F7100E9469117093ED03CE
:101FE0006093EC032091DD033091DE038091E503E3
:101FF0009091E6032817390718F482E08093DC04F7
:102000008091DC03882399F01092DC038091E9032E
:10201000882309F44BC01092E9030E94FA078091CB
:10202000D9038111FECFD092E9030E944B09909110
:10203000DB048091DC04981721F184EC92E00E948B
:102040000D098BEF93E00E942C038091DB040E942A
:102050000F098DEC92E00E940D098BEF93E00E9436
:102060002C038091DC040E940F098FE491E00E9410
:102070003D088BEF93E00E942C038091DC04809359
:10208000DB048091DC04813009F44CC0D0F0823054
:1020900009F46BC00115110509F450CF0E94A90283
:1020A000882309F44BCF0E94000048CF80EA92E0D9
:1020B0000E948E080E94FA0783EB92E00E948E082D
:1020C000B4CF61E087E00E94080161E085E00E94F2
:1020D000080164EF71E080E090E00E94CE01809101
:1020E000E903811109C08091DA039091DB03019625
:1020F0009093DB038093DA032091EA033091EB03A2
:102100008091DA039091DB032817390718F682EDE6
:1021100092E00E948E088BEF93E00E942C03D092F5
:10212000DC04B8CF1092E9031092DB031092DA03BB
:102130008091D9038111FECF2091DD033091DE0320
:102140008091E3039091E4038217930748F4809110
:10215000DF039091E0030E949C081092DC049ACF68
:102160008091E1039091E203F6CF2091DD0330915D
:10217000DE038091E7039091E8038217930768F3E9
:102180008091DF039091E0030E949C0883CFF9992E
:10219000FECF92BD81BDF89A992780B50895A1E23E
:1021A0001A2EAA1BBB1BFD010DC0AA1FBB1FEE1FD1
:1021B000FF1FA217B307E407F50720F0A21BB30B1C
:1021C000E40BF50B661F771F881F991F1A9469F798
:1021D00060957095809590959B01AC01BD01CF01F4
:1021E0000895EE0FFF1F0590F491E02D09940E94D1
:1021F0000B110C94F3110E94EC1158F00E94E511A0
:1022000040F029F45F3F29F00C94DC1151110C943B
:1022100027120C94E2110E94041268F39923B1F37F
:10222000552391F3951B550BBB27AA2762177307FC
:10223000840738F09F5F5F4F220F331F441FAA1F90
:10224000A9F335D00E2E3AF0E0E832D0915050404C
:10225000E695001CCAF72BD0FE2F29D0660F771FFA
:10226000881FBB1F261737074807AB07B0E809F0E0
:10227000BB0B802DBF01FF2793585F4F3AF09E3F65
:10228000510578F00C94DC110C9427125F3FE4F3B5
:10229000983ED4F3869577956795B795F7959F5FA8
:1022A000C9F7880F911D9695879597F90895E1E0F4
:1022B000660F771F881FBB1F621773078407BA0753
:1022C00020F0621B730B840BBA0BEE1F88F7E095AE
:1022D00008950E9470116894B1110C94271208950A
:1022E0000E940C1288F09F5798F0B92F9927B75188
:1022F000B0F0E1F0660F771F881F991F1AF0BA95AA
:10230000C9F714C0B13091F00E942612B1E00895CF
:102310000C942612672F782F8827B85F39F0B93FC1
:10232000CCF3869577956795B395D9F73EF490955C
:102330008095709561957F4F8F4F9F4F0895E894DA
:1023400009C097FB3EF490958095709561957F4FFD
:102350008F4F9F4F9923A9F0F92F96E9BB279395AB
:10236000F695879577956795B795F111F8CFFAF4BB
:10237000BB0F11F460FF1BC06F5F7F4F8F4F9F4FEC
:1023800016C0882311F096E911C0772321F09EE84A
:10239000872F762F05C0662371F096E8862F70E0B0
:1023A00060E02AF09A95660F771F881FDAF7880F8A
:1023B0009695879597F9089597F99F6780E870E05B
:1023C00060E008959FEF80EC089500240A941616AB
:1023D000170618060906089500240A941216130613
:1023E000140605060895092E0394000C11F48823A1
:1023F00052F0BB0F40F4BF2B11F460FF04C06F5FBD
:102400007F4F8F4F9F4F089557FD9058440F551F92
:1024100059F05F3F71F04795880F97FB991F61F066
:102420009F3F79F087950895121613061406551FDD
:10243000F2CF4695F1DF08C0161617061806991F49
:10244000F1CF86957105610508940895E894BB273E
:1024500066277727CB0197F908950E9440120C94C4
:10246000F3110E94E51138F00E94EC1120F0952341
:1024700011F00C94DC110C94E21111240C9427122D
:102480000E94041270F3959FC1F3950F50E0551F01
:10249000629FF001729FBB27F00DB11D639FAA27B9
:1024A000F00DB11DAA1F649F6627B00DA11D661F08
:1024B000829F2227B00DA11D621F739FB00DA11D29
:1024C000621F839FA00D611D221F749F3327A00DE3
:1024D000611D231F849F600D211D822F762F6A2F7F
:1024E00011249F5750409AF0F1F088234AF0EE0FE4
:1024F000FF1FBB1F661F771F881F91505040A9F711
:102500009E3F510580F00C94DC110C9427125F3F24
:10251000E4F3983ED4F3869577956795B795F7954C
:10252000E7959F5FC1F7FE2B880F911D96958795C4
:0825300097F90895F894FFCF1C
:102538003E023E0200003200E100581BA00F941139
:1025480000780000000000000000000000DF023FEB
:10255800026C022C039D027B028F0200000000D354
:1025680003C803DB079E03C103AE039F03000000FB
:102578000093046B04DB07BA04B40451043C040D53
:102588000A00736C65657028290077616B65757042
:10259800210053544154455F414354495645005323
:1025A800544154455F534C4545500053544154459C
:1025B8005F554E444552564F4C5441474500494E8D
:1025C80056414C49442028002D2D2D2D2D2D2D2DE3
:1025D8002D2D2D2D2D2D2D2D2D2D2D2D2D2D2D2D23
:1025E8002D2D2D2D2D2D00736C656570496E74652C
:1025F8007276616C466173743A2000736C6565701D
:10260800496E74657276616C536C6F773A2000730B
:102618006C656570496E74657276616C536C6F7722
:10262800566F6C746167653A2000756E64657276E2
:102638006F6C746167654C6F636B6F75743A2000DB
:10264800756E646572766F6C7461676548797374CA
:102658006572657369733A200064697361626C65B9
:1026680054696D656F75743A200074696D656F758E
:10267800743A2000536F6C617243616D5069204950
:102688006E697400496E697469616C697A696E670C
:1026980020454550524F4D00426C6F636B20666F6A
:1026A800756E6400547279696E6720746F20696E64
:1026B800697469616C697A6520494E410053657493
:1026C80074696E6720757020525049204932430062
:1026D800656570726F6D20777269746520737461B7
:1026E800727400656570726F6D2077726974652009
:1026F800656E64005B73746174655D2000202D3E17
:10270800200054696D656F75742072656163686532
:102718006421205368757474696E6720646F776EDE
:0227280021008E
:00000001FF
